:020000040020DA
:10000000008020009D002000D5201000D720100087
:1000100000000000000000000000000000000000E0
:100020000000000009125634D81B0000D92010002F
:100030000000000000000000DB201000DD201000A8
:10004000DF2010003901200061231000DF201000A4
:100050008522100099221000DF201000DF20100000
:10006000DF20100051231000E1201000E1201000DB
:10007000052410002D2410004D241000DF20100056
:10008000DF2010005329CD680348854600F016F89C
:1000900000480047E100200000802000054880471C
:1000A00005480047FEE7FEE7FEE7FEE77047FEE78C
:1000B00070470000ED6D100089002000064C0125FE
:1000C000064E05E0E36807CC2B430C3C9847103400
:1000D000B442F7D3FFF7DCFFD81B2000D81B200069
:1000E000134802F7D3FD134C0546012801D108201F
:1000F00060620E2000F738FA616A082904D180098D
:10010000032801D000206062A08C1021C0B204F747
:10011000F5FE606A0828284606D000F01FFB6F2015
:1001200001F056F800F060FB00F0FEFD00F05EFE0E
:10013000A8801000D81B200070B5154E356B154CEB
:10014000A80706D501F7E6F8203006F790FAFF2851
:100150000FD002F7ABF821780F486C2915D0217821
:10016000652905D10021416201F786FC01F710FDE8
:1001700070BD20700948806880470948817906224F
:1001800011438171356340BF70BD0821EBE700006A
:100190000010014039452000D81B2000383C2000C9
:1001A000BC3C200070B516460C4600F0BDFF6E2822
:1001B0002ED0184D80342846216B02F76FF9490480
:1001C000C00B0843144C002E606208D080362846CD
:1001D000316B02F763F94904C00B0843A0620120A8
:1001E000C003E0620D4820630A480E4A5538606338
:1001F0000B48A0630A480C4BD338E0630020410051
:100200005C5A89184031401CCC862128F7DB70BD30
:10021000064DCFE72B070000803B2000CC1C0000E0
:100220001F050000803A2000941B2000630200009C
:1002300070B586B072B60021344B029103915968B3
:10024000009199680191D9680491314C0021FF22F5
:10025000B9324A431219FF328132556B029E491C52
:10026000AD190295126B039D521903920429EEDB1E
:10027000DA69002A04D0FF2101310843002140E05F
:1002800062B6009A029991420BD0491C914208D063
:100290000299891C914204D0012149020843029924
:1002A0002FE0019A039991420BD0491C914208D04A
:1002B0000399891C914204D0032109020843039940
:1002C0001FE01146009A8A1804998A4208D0049CBB
:1002D000511CA14204D0012189020843214610E0AB
:1002E0001A68596991420ED04B1C5B075B0F934211
:1002F00009D08B1C5B075B0F934204D005231B02C4
:10030000184300F0F1F806B070BD0000D81B2000C3
:10031000EC2220000B4610B504494208897891422E
:1003200002D0184600F0E0F810BD0000A03A20000E
:1003300010B50549054A496852690969914201D0D9
:1003400000F0D2F810BD00002C452000D81B200082
:1003500070B5184C21698805000E421CD3B2164AAC
:100360001278824203D09A4201D01A201FE0134A29
:10037000127E824204D09A4202D0FF201B3016E047
:100380000F4A127C824203D09A4201D00D480EE0FF
:100390000D4A127A824203D09A4201D00B4806E0FD
:1003A00062698807800F5308984202D0084800F01D
:1003B0009BF870BDD81B20000C232000AC2420002B
:1003C0006C2620001A0200002C2820001A030000CE
:1003D0001A04000070B54408640078235C43174D8C
:1003E000174B2A691E59B24204D0FF20013008433E
:1003F00031461FE0E4186A696468A24204D0012013
:1004000040020843214615E001250C4C284378257D
:10041000803468431D58626CAA4202D00320000257
:1004200006E0C018A26C4068824205D0012080021C
:100430000843294600F058F870BD0000C03D200078
:100440002C1F2000FFB583B00020009003981C46AD
:100450000068401A0112002900DC0021D0B200F02F
:1004600049FE05461F4FA000C019FF300130406A09
:10047000019000F059FE6E280DD09626B54228DA7C
:100480003C21284601F732FE3C2141436C1A002CE6
:1004900003DC012404E04B26F0E73C2C00DD3C2487
:1004A0008000C019FF300130C76A006B3C21381A48
:1004B00001F71CFE6043391A019801F7D7FF490480
:1004C000C00B084303994968814202DA0120009079
:1004D00001E0B54202DB0C9800210160009807B0F2
:1004E000F0BD0000803A20000D4606461446C0B21A
:1004F000102104F703FD3004000E112104F7FEFC67
:100500001E4E1221307D04F7F9FC3078132104F7D8
:10051000F5FC307E142104F7F1FCE8B2152104F754
:10052000EDFC2804000E162104F7E8FC2802000E5A
:10053000172104F7E3FC280E182104F7DFFCE0B2D2
:10054000192104F7DBFC2004000E1A2104F7D6FC65
:100550002002000E1B2104F7D1FC200E1C2104F701
:10056000CDFC0821032004F7C9FC402005F7AEF8B4
:10057000202005F7ABF862B6FEE70000D81B20008C
:10058000F0B58BB020222349684601F7E9FD2348E6
:1005900000240146C43110306D461F4E0991089069
:1005A00004F72AF80146BC201D4A60438018303108
:1005B0002F2201F0F7F8FF20B93060438019074679
:1005C0006E22184901F0EEF82037BC70E700E959B7
:1005D0001E22089801F0E6F8781941681E22099851
:1005E00001F0E0F803F7C8FDF020214641430E4832
:1005F0001E2208180746089901F0D4F838467830CA
:100600001E22099901F0CEF8641C042CC8DB0BB043
:10061000F0BD0000B4172000EC222000C03D2000F7
:10062000CC292000803A20002C1F2000F8B572B69B
:100630001C4C1D4E60691D4FC507ED0F15D0FF21E5
:100640004008B931484380196E22194901F0AAF8CF
:1006500003F7D2FF6169BC2249085143CB19014617
:100660002F223031184601F09DF8207D401C4007B4
:10067000400F6061002D13D0FF214008B93148437D
:1006800081196E220A4801F08DF803F7B5FF616900
:10069000BC2249085143C9192F22303001F082F899
:1006A00062B6F8BDD81B2000EC222000CC29200027
:1006B000803A200030B50D4C2078401C4007400F98
:1006C0002060C10711D17821094D484341191E22EC
:1006D000084801F067F82068782148434119054827
:1006E0001E22B430783101F05DF830BDD81B2000F7
:1006F0002C1F2000D03D20000A4900B5884201DDB2
:10070000FF2000BD2928FCDB00F012F80649401844
:100710000649484305210012C902401880300012E2
:1007200000BD000024842E00AEFAFFFF420D000041
:10073000010200208022930003E0491C4910FF3091
:1007400001309942F9DC49430912994202DB491C04
:10075000491080185210F6D17047000070B5044659
:1007600001280FD0002C0DD002F7DEFA204602F748
:1007700065FA0221342004F7C1FB03211B2004F792
:10078000BDFB70BD02F730FA0F480121C26A890330
:100790008A43C2628030026E124B8A4302660C4961
:1007A0000A48C8600C480B4981630C4941600C4AF7
:1007B00000214800155AC0184030491CC58621291F
:1007C000F7DB00F0CBFCD1E7403E2000C51620004F
:1007D000383F200089082000383C2000B912200052
:1007E000941B2000803A2000264C00F7F9FD2830A9
:1007F00005F73DFF401CC0B20A2104F77FFB05F757
:1008000069FC06F75BFE002801D000F0A9FE04F7A2
:1008100065F9002801D004F75DFA07F723FB0028EB
:1008200001D004F727FBA06B804700281FD004F7F6
:100830005FF9002805D004F7E5FA0321FF2006F749
:1008400063FE04F737F9002801D003F76BFE03F7C6
:10085000FDFE03F76DFF00F0A9FE0028C5D000F0F3
:100860006FFF002808D0616818208847BDE704F7AB
:10087000DBF8206C8047E4E71A21802004F73EFB78
:10088000B3E70000383F2000F7B59EB0144603F7E9
:10089000B3FE1490C0481190002C03D1008A119926
:1008A000401C088203F7A8FE30300E90242200215D
:1008B00004A807F725FAB94D0020696810911E9E1B
:1008C00013A90190029003900091B5480123476B52
:1008D00004AA80213046B8471099696000280CD0DE
:1008E000B048AF4F1090BB6E224680219847AA486F
:1008F00080381590002C03D008E0242021B0F0BDF2
:1009000000206860A8601598A749C1610498C013C9
:10091000800081190A46803AD26F30584968101811
:1009200041189E485822C1609B48E038017F20381A
:100930001890204650430F90002911D003F75CFE19
:100940009A4930304A68002A20D08030418F0029EF
:100950001CD0D003FFF6EEFB189988630125FEE05A
:100960000E9A0F99049889180861914888630120AC
:10097000189AC00390630120032582008A180B692E
:10098000401C956313610A28F7DBE7E70120C003E9
:10099000E2E7834EF06A002800D08047242200213D
:1009A00004A807F7ADF91E98690208180D900F9971
:1009B0000E987E4F0918A800199008181A9002691D
:1009C000A000C019806A764E8030016B336F0D989D
:1009D0009847002213A90195029200910390766B2B
:1009E000032304AA80210D98B047169000287DD0DB
:1009F0001A980269119881691898836B0120C003C5
:100A0000181A41430813101A019000201A90064644
:100A10000120179017A8009023462A4604A80199A0
:100A2000FFF710FD002802D00126049900E001998B
:100A30001198028A408A824201D9119A1082282094
:100A40002246424359481218199817181198FF372F
:100A5000028A4137386802F7B8FE3860029017986A
:100A6000012804D11498016A0198401A02900020CC
:100A70001B906EE030460C21484304A91C90085896
:100A800005220199D2038918884201DA01211A91BD
:100A90001799002901D0029903E01A990029FAD088
:100AA0000199401A011200D50021E8B200F022FBA2
:100AB000071E00DC01271798012806D138480D9A37
:100AC000436F38460199984707461B9802283CDA3D
:100AD0003848874239DA1C9904A8081813991C90E1
:100AE0004068491C01F702FB304900E034E0096826
:100AF0000979090601D5FFF7FFFDFF2800D9FF207E
:100B0000264A9178491C91701B9B12214B43E100AE
:100B1000611859184919491E8900891888758F82EA
:100B2000CD751598C069B84201D91598C761159857
:100B3000C822016A384602F711FE002805D017487E
:100B40001C9982688968511881601B98401C761C2A
:100B50001B90169886428DDB6D1C0A2D04DA164810
:100B60000078002800D114E70D4D23466E6E0B4A25
:100B700080211098B0471148006B8047611C884263
:100B800002D11598C16901622B6C22461F991E98EB
:100B9000984740B2B2E60000003C200088442000A4
:100BA000383C2000084220003F420F00803A2000DD
:100BB00030750000B414000000402000383F2000D1
:100BC00010B50849002048616E220749074800F027
:100BD000E9FD03F711FD2F220549303000F0E2FD59
:100BE00010BD0000D81B2000EC222000803A20001D
:100BF000CC29200030B5094D00241E22084909489F
:100C00002C6000F0CFFD064906481E227831B43032
:100C100000F0C8FDEC612C6230BD0000D81B200044
:100C20002C1F2000D03D200010B500200D4B0446A5
:100C3000FF21B9314143CA181146FF3181314C635C
:100C400020320C639070401C0428F1DBFFF7D2FFC8
:100C5000FFF7B6FF0448846144608460C4600461A7
:100C600010BD0000EC222000D81B2000FEB52B4850
:100C70002B4F41690191016800250091274C1621F5
:100C80006069FFF7A7FB002038702061254C206BBE
:100C90008047012804DDE16A01208847064600E01C
:100CA0000026E16A00208847029003F7A5FC32463F
:100CB000029902F75DFE206B8047012804DDE16A9E
:100CC00001208847064600E00026E16A00208847A8
:100CD000044603F791FC32462146FFF763FAFFF71B
:100CE000E9FCFFF7E7FCFFF7A1FCFFF79FFC6D1C99
:100CF000042DC3DB0948019A4169914201D01720B4
:100D000005E001680098814203D002461820FFF7F1
:100D1000EBFB1920FFF78CFAFEBD0000D81B20006A
:100D2000A03A2000383F200010B5044601281DD00D
:100D3000002C1BD003F760FC807E05F79EFCA0060C
:100D400001D4FFF771FF204601F7EEFF204601F7BF
:100D500075FF03F751FC0F21C1750221342004F700
:100D6000CDF803211B2004F7C9F810BD01F73CFFA3
:100D700012480121C26A89038A43C2628030026E2E
:100D80008A430266FFF7FCFBFFF74EFF0D480C4954
:100D9000C1600E490C4A8A630D4ACA620D4A42611B
:100DA0000D4AC2630D4A02610D48C8610D480861D1
:100DB0000D48486000F0D2F9C8E70000403E20002E
:100DC00095102000383F200089082000383C200082
:100DD000ED142000F1152000D51520009D162000EF
:100DE00001132000251420006D0C20000024312662
:100DF0004A4F4B4D00F7F4FA283005F738FC401CF9
:100E0000C0B20A2104F77AF805F764F906F756FB31
:100E1000002801D000F08EF803F760FE002832D0E1
:100E2000002240491046FF23B93343435B18203367
:100E30005B78401C9A18D2B20428F4DB002A20D038
:100E4000394A0020FF23B93301465943354BC918AD
:100E500021235E54A0310C770146BC2359435450E2
:100E600089184C608C60401CCC600428EADB03F7D6
:100E7000C3FB046344638463C4632C4846708030BE
:100E8000047703F727FF2868002805D106F7EAFF53
:100E9000002801D003F7EEFFB86B8047002832D05E
:100EA00003F726FE002805D003F7ACFF0321FF203F
:100EB00006F72AFB03F7FEFD002814D0022168691B
:100EC000FFF728FA1A48416B491C41630320FFF7DA
:100ED0002FFAFFF73DFA03F725FBFFF7A7FB0421E5
:100EE0006869FFF717FA72B6296868690843A96943
:100EF0000843296A0843E96908430CD062B620BF59
:100F000003F716FC76E70120FFF792F903F78CFD53
:100F1000386C8047CEE703F799FBF1E7383F2000B4
:100F2000D81B2000EC222000CC292000A03A200071
:100F3000003C2000FEB5544E307800250F27534C5E
:100F400000901F2835D006DC10280BD0152867D05C
:100F5000192872D125E0202834D0FF286DD1FFF761
:100F600063FE6AE072B6357062B603F74BFFFFF7B7
:100F70005BFE03F741FBC7750E20FFF6F5FA80090B
:100F800003280AD008210E2003F7B8FF402004F7F9
:100F90009DFB202004F79AFBFEBD03F7BDFE014632
:100FA0006BE007216069FFF7B5F906F70BFA082136
:100FB00055E072B6357062B603F724FFFFF734FED2
:100FC00000215AE072B6357062B603F715FBC7759B
:100FD00009216069FFF79EF90A20FFF729F901202E
:100FE000206203F70FFF03F7B9FA06462848256287
:100FF000416B891C41636068A561801C6060FFF7DC
:1010000059FBFFF757FBFFF711FBFFF70FFB0B2116
:101010006069FFF77FF90C20FFF70AF931462CE0F1
:1010200000F778F98030019005F721FB0746172873
:1010300019D0182F17D0192802D000F091FAFEBD50
:101040000D216069FFF766F906F7BCF9FFF732FB7F
:10105000FFF730FBFFF7EAFAFFF7E8FA0E216069C5
:10106000FFF758F9FEBD72B6357062B600210198DF
:1010700005F71BFB172F04D00B21009806F744FA45
:10108000FEBD0A21F9E7000039452000D81B2000E9
:10109000003C2000F3B50646B420144970434418C0
:1010A0008C34208D124D0004C70E286881B0C10712
:1010B00004D0014600220520FFF716FA0621FFF7AB
:1010C00089F90120E8611F20A16AC0028143A16261
:1010D0003046029906F746FC1F21A06AC9028843E0
:1010E000F9020843A0620020E861FEBDC03D200077
:1010F000D81B200040080A4A8000801840680F234F
:10110000800848430749400B4843916A8031096A87
:101110008A02920F09029A1AC90F511A08417047A0
:10112000803A200051070000014800787047000015
:10113000001C200089000918002200E004C0814240
:10114000FCD1704710B59200121803E00C680368D8
:1011500010C008C18242F9D110BD0000F8B5194F86
:10116000194E0024B4206043C1191420604385192E
:101170002D1D05222846A83100F014FB284600F05A
:10118000C5FA641CE4B2022CECD30F482C3000F0FA
:10119000B1FA0D4BBC213C331846FFF7CBFF31248D
:1011A0000A4802E0B821CC54BC338342FAD303F797
:1011B00023FAE03004726F203070192103F79EFE8D
:1011C000F8BD0000C03D2000001C20002C1F2000A6
:1011D000F1B5324C82B021780298814236D0304E3F
:1011E0000025B420684381191420684300190522A2
:1011F000001DA831FFF7A6FF6D1CEDB2022DF0D344
:101200002648042227492C30FFF79CFF03F7F4F906
:101210003030009021482838416A6430082916D0BF
:1012200001462F220098FFF78DFF00981E49A0303D
:10123000007E4870072103F761FE1C48806A8047E2
:10124000029820701921029803F758FEFEBD184D30
:1012500000221146BC235943FF27B93713467B436D
:10126000144F4E19DB1920330919A0365F78DC3191
:101270003776097E521C5970042AEADBBC220C49DD
:10128000FFF760FF0548BC21283840692F2240083D
:1012900048434119009800F085FAC6E7001C200079
:1012A000C03D2000E43C2000A03A2000383C200053
:1012B000CC292000EC22200070B514460D4602F720
:1012C00057FBFFF731FF6E2815D18035286B0A4D8B
:1012D000294601F7E3F84904C00B0843074E002CE8
:1012E000706208D080342946206B01F7D7F8490492
:1012F000C00B0843B06270BDA7040000803B200013
:10130000F1B5434C86B0226806981518D00703D073
:1013100000211B20FFF7E8F8A0680F21401CA06007
:101320006069FEF7F7FF10216069FFF753F8606905
:10133000FF214008B9314843364E6E2280193649A4
:1013400000F030FA03F758F901466069BC22400802
:101350005043324F3031C0192F2200F023FA680871
:10136000FF21B931009048438019014603906E2255
:10137000294800F017FA03F73FF903460098BC210B
:101380004843C0193033014601902F22184600F01F
:1013900009FA2348016B491C016311212846FEF715
:1013A000B9FF12212846FFF715F8069802F7AEFBA1
:1013B00013212846FEF7AEFF6E221749039800F06E
:1013C000F1F903F719F9014630312F22019800F0A5
:1013D000E9F96069FF214008B931484381196E225B
:1013E0000D4800F0DFF903F707F96169BC224908ED
:1013F0005143C9192F22303000F0D4F9142160690B
:10140000FEF788FF15216069FEF7E4FF07B0F0BD25
:10141000D81B2000EC222000803A2000CC2920009C
:10142000003C2000F7B50F4684B0154600240E217D
:10143000082003F763FD082004F740F8002809D0CE
:1014400021A207CA6E4607C608216B460922084634
:1014500003F738FF1F4E3078002831D11E4800684E
:10146000007940072CD51D482A46836B39460498DD
:10147000984704460E21092003F740FD30780028E4
:101480001ED11748006B80476D1CA84218D10E2151
:101490000B2003F733FD104A124820321178858A59
:1014A0008B006D082B43104D491C2B701170016986
:1014B000491C016103F7A8F86870284604F708F88A
:1014C000204607B0F0BD0000414C472043616C63EB
:1014D0000000000000402000803A2000383C20003E
:1014E000383F2000D81B20008844200010B50A484F
:1014F0000068002805D106F7B5FC002801D003F7E5
:10150000B9FC064CA06B8047002803D103F78CFA86
:10151000206C804710BD0000D81B2000383F200001
:1015200070B506460D4800240068C5B203F764F89C
:10153000C17E0807800F8907890F054001408D4251
:1015400005D103F759F8807E05F797F800E00D24E0
:101550002146304605F7D8FF70BD0000000004406A
:1015600010B572B61048047800216E2C06D06F2C8E
:1015700004D0212C0CD0FF2C11D012E0017062B6E7
:101580002046FFF725FE0021204605F7BDFF04E0B9
:10159000017062B62046FFF7C3FF40BF10BD03F7DE
:1015A00031FC05F70FFF10BD3945200008480169DF
:1015B000C9070AD08168406A7D22D200904204D9CE
:1015C0008908814201D20120704700207047000045
:1015D00000000240F8B5054C069DA669002E04D116
:1015E0000326A661009505F7FDFFF8BDD81B200076
:1015F000F8B526490024E0B205F784F9641C0146D9
:10160000052CF8D3224D01246C75224F3822384620
:10161000391D3C3006F75AFBE97D48064906400E65
:10162000C90FC9010843E875AC754106CE0F297D85
:10163000761CB14200D80026BF210840F107490EB0
:101640000843154CE8752068F864E068401CE060C9
:10165000216AE069084304D16068401C6060FFF7BC
:1016600029F872B6206A002802D0012804D009E0C7
:101670002068002802D105E0012E03D1E87D202159
:101680000843E87562B640BFF8BD00003C45200045
:10169000203F20003C592000D81B200010B506F741
:1016A000FDF805488169002905D0491E816103487C
:1016B0000349C069086010BDD81B2000383C2000D9
:1016C0003C59200070B5B422094B4243D4188C34E5
:1016D000A26A1F261304F602B243DD0EA26206F7C9
:1016E00041F9A06AE902B0430843A06270BD00005E
:1016F000C03D200000220449426001600249C260EE
:10170000C539816070470000CD6C00003F22C16880
:10171000520191430722D2018918074A9143C160BF
:101720004168520491434160044A01689143032295
:10173000D20289180160704718007C00007C003FCD
:1017400070B5154CE06C804702F756FF1349407E98
:101750004A6BC0061304C00EDB0E00281AD0984254
:1017600018D1401E1F23C006DB02050C9A432A43F2
:10177000084680304A63816E994329438166206B15
:101780008047616B8847064805F753FB206C80470C
:10179000002070BD032070BD383F2000403E200077
:1017A000988010009200521801E008C908C09142C8
:1017B000FBD17047D41720004C182000C41820001B
:1017C0003C192000B41920002C1A2000A41A200073
:1017D0001C1B2000070E0000070E0000070E000073
:1017E000070E000000000000070E0000070E0000BA
:1017F000070E0000070E000000000000EF31061E7B
:10180000EF31061EEF31061EEF31061EEF31061EC8
:10181000EF31061EEF31061EEF31061EEF31061EB8
:10182000008CC106008CC106008CC106008CC1066C
:10183000008CC106008CC106008CC106008CC1065C
:10184000008CC106800100000000120A1C38000054
:101850001C3800001C3800001C380000000000008C
:101860001C3800001C3800001C3800001C38000028
:1018700000000000EF31061EEF31061EEF31061E9C
:10188000EF31061EEF31061EEF31061EEF31061E48
:10189000EF31061EEF31061E008CC106008CC1061A
:1018A000008CC106008CC106008CC106008CC106EC
:1018B000008CC106008CC106008CC10680010000AE
:1018C0000000120A70E0000070E0000070E000000C
:1018D00070E000000000000070E0000070E0000018
:1018E00070E0000070E0000000000000EF31061E14
:1018F000EF31061EEF31061EEF31061EEF31061ED8
:10190000EF31061EEF31061EEF31061EEF31061EC7
:10191000008CC106008CC106008CC106008CC1067B
:10192000008CC106008CC106008CC106008CC1066B
:10193000008CC106800100000000120AC081030073
:10194000C0810300C0810300C081030000000000CB
:10195000C0810300C0810300C0810300C081030077
:1019600000000000EF31061EEF31061EEF31061EAB
:10197000EF31061EEF31061EEF31061EEF31061E57
:10198000EF31061EEF31061E008CC106008CC10629
:10199000008CC106008CC106008CC106008CC106FB
:1019A000008CC106008CC106008CC10680010000BD
:1019B0000000120A00000000070E0000070E0000E1
:1019C000070E0000070E000000000000070E0000D8
:1019D000070E0000070E0000070E0000DE630C3C3F
:1019E000DE630C3CDE630C3CDE630C3CDE630C3CD3
:1019F000DE630C3CDE630C3CDE630C3CDE630C3CC3
:101A00000018830D0018830D0018830D0018830D36
:101A10000018830D0018830D0018830D0018830D26
:101A20000018830D000300000000120A00000000EF
:101A30001C3800001C3800001C3800001C38000056
:101A4000000000001C3800001C3800001C3800009A
:101A50001C380000DE630C3CDE630C3CDE630C3C97
:101A6000DE630C3CDE630C3CDE630C3CDE630C3C52
:101A7000DE630C3CDE630C3C0018830D0018830D04
:101A80000018830D0018830D0018830D0018830DB6
:101A90000018830D0018830D0018830D000300004B
:101AA0000000120A0000000070E0000070E000007A
:101AB00070E0000070E000000000000070E0000036
:101AC00070E0000070E0000070E00000DE630C3C9D
:101AD000DE630C3CDE630C3CDE630C3CDE630C3CE2
:101AE000DE630C3CDE630C3CDE630C3CDE630C3CD2
:101AF0000018830D0018830D0018830D0018830D46
:101B00000018830D0018830D0018830D0018830D35
:101B10000018830D000300000000120A00000000FE
:101B2000C0810300C0810300C0810300C0810300A5
:101B300000000000C0810300C0810300C0810300D9
:101B4000C0810300DE630C3CDE630C3CDE630C3CB6
:101B5000DE630C3CDE630C3CDE630C3CDE630C3C61
:101B6000DE630C3CDE630C3C0018830D0018830D13
:101B70000018830D0018830D0018830D0018830DC5
:101B80000018830D0018830D0018830D000300005A
:101B90000000120A00008805370B27116517021E86
:101BA0001E25BF2CF534C73D2747F650095B386525
:101BB000616F72796283308DDC9662A0BAA9D9B266
:101BC000AEBB2BC43FCCE9D32EDB06E28BE8B8EEEC
:081BD000A9F468FAFFFF000010
:04000005002000894E
:00000001FF
